:100000000C9434000C9451000C9451000C94A605EF
:100010000C9451000C94B8050C9451000C945100B0
:100020000C9451000C9451000C9451000C9451000C
:100030000C9451000C9451000C9451000C945100FC
:100040000C9451000C9451000C9493050C945100A5
:100050000C9451000C949C040C9451000C9451008D
:100060000C9451000C94510011241FBECFEFD8E026
:10007000DEBFCDBF11E0A0E0B1E0E0ECFEE002C0E9
:1000800005900D92A033B107D9F721E0A0E3B1E0CC
:1000900001C01D92A734B207E1F70E9497040C94A7
:1000A0005E070C9400008AB184618AB984B18061D2
:1000B00084B984B18E7F84B984B18D7F84B984B1D1
:1000C0008B7F84B98AB18F778AB985B1816085B910
:1000D00085B1826085B985B1846085B98BB180684E
:1000E0008BB9E8E6F0E081E08083908194609083B2
:1000F000EBE6F0E0908197609083EDE6F0E0908190
:1001000090689083809345019BB194609BB98093E4
:10011000310184B1806284B987B1806387B985B1C8
:100120008F7D85B988B18F7E88B988B18F7D88B978
:1001300008958AB182608AB98AB18E7F8AB9109295
:10014000C00088E98093C10086E08093C20087E602
:1001500090E09093C5008093C40008959091C000F2
:1001600095FFFCCF8093C60008950F931F93CF9304
:10017000DF938C01C0E0D0E003C00E94AE00219666
:10018000F801EC0FFD1F80818111F7CFDF91CF9136
:100190001F910F910895813061F028F0823091F025
:1001A0008330C9F021C0ECE7F0E08081807F80835C
:1001B0000895ECE7F0E08081807F8083808181601A
:1001C00080830895ECE7F0E08081807F80838081E8
:1001D000826080830895ECE7F0E08081807F8083F7
:1001E0008081836080830895ECE7F0E08081807FE8
:1001F00080830895ECE7F0E0108280818064808342
:1002000080818F7D8083809142010E94CB00EAE74C
:10021000F0E01082808188608083808187608083A5
:1002200080818068808380818064808308959AB112
:1002300090649AB994B59F7394BD813021F484B5CC
:10024000806C84BD03C084B5806884BD84B5836040
:1002500084BD15BC60347105C1F038F4613071059E
:1002600061F06830710569F01FC0611581E07807A1
:1002700081F06115744089F017C085B5816085BD36
:10028000089585B5826085BD089585B5836085BD77
:10029000089585B5846085BD089585B5856085BD63
:1002A00085B58D7F85BD089585B5816085BD08952F
:1002B00087BD08959AB190629AB994B59F7C94BD18
:1002C000813021F484B5806384BD03C084B580622D
:1002D00084BD84B5836084BD15BC60347105C1F0F4
:1002E00038F46130710561F06830710569F01CC047
:1002F000611581E0780781F06115744089F014C0C0
:1003000085B5816085BD089585B5826085BD0895F8
:1003100085B5836085BD089585B5846085BD0895E4
:1003200085B5856085BD089585B5816085BD0895D5
:1003300088BD089594B1986094B9E0EBF0E09081A5
:100340009F739083813021F48081806C808305C00D
:10035000E0EBF0E0808180688083E0EBF0E080817A
:10036000836080831092B10060347105E1F038F44D
:100370006130710561F06830710579F026C0611552
:1003800081E07807B1F061157440C9F01EC0E1EB5F
:10039000F0E08081816080830895E1EBF0E080816E
:1003A000826080830895E1EBF0E080818360808348
:1003B0000895E1EBF0E08081846080830895E1EBB3
:1003C000F0E08081876080830895E1EBF0E0808138
:1003D0008160808308958093B30008959AB19860F6
:1003E0009AB9E0EBF0E090819F7C9083813021F41A
:1003F00080818063808305C0E0EBF0E080818062D3
:100400008083E0EBF0E08081836080831092B10014
:1004100060347105E1F038F46130710561F06830E5
:10042000710579F026C0611581E07807B1F061159A
:100430007440C9F01EC0E1EBF0E0808181608083F0
:100440000895E1EBF0E08081826080830895E1EB24
:10045000F0E08081836080830895E1EBF0E08081AB
:10046000846080830895E1EBF0E080818760808381
:100470000895E1EBF0E08081816080830895F89435
:1004800080E8809361000E9453000E9499000E94BE
:10049000FA0060E074E080E00E949A0160E074E09D
:1004A00080E00E94EE0160E074E080E00E941701AD
:1004B00060E074E080E00E945A017894089580938F
:1004C000B4000895F894F999FECF72BD61BD80BD66
:1004D0008FB384608FBB8FB382608FBB7894089595
:1004E000F999FECF92BD81BD8FB381608FBB80B57E
:1004F00008952FEF82E597E0215080409040E1F78A
:1005000000C0000083B18093380199B19093360107
:10051000909139018913E9C0189918C0809145015B
:100520008F5F80934501843018F081E0809345010E
:1005300080914501813009F0D4C0EAE7F0E0808184
:1005400080688083808180648083CBC0199910C0CB
:1005500080914501833061F4809131018F5F8093F8
:100560003101853008F4BDC081E080933101B9C00C
:100570001A99B7C080914501833009F0B2C08091CB
:1005800030016091310170E061507109660F771F91
:10059000660F771F680F711D809135010E946202FE
:1005A00080E091E00E94B5002091300180913101FE
:1005B00090E00197880F991F880F991F820F911D56
:1005C0000E9470020E94AE008AE00E94AE0060911C
:1005D000300170E06F5F7F4F8091310190E00197B3
:1005E000880F991F880F991F680F791F8091340118
:1005F0000E9462028CE091E00E94B50020913001DF
:1006000030E02F5F3F4F90913101892F90E00197AB
:10061000880F991F880F991F820F931F0E947002E5
:100620000E94AE008AE00E94AE006091300170E04E
:100630006E5F7F4F8091310190E00197880F991F85
:10064000880F991F680F791F809133010E94620201
:1006500088E191E00E94B5002091300130E02E5FEA
:100660003F4F90913101892F90E00197880F991F9A
:10067000880F991F820F931F0E9470020E94AE0084
:100680008AE00E94AE006091300170E06D5F7F4FA4
:100690008091310190E00197880F991F880F991F71
:1006A000680F791F809132010E94620284E291E01A
:1006B0000E94B5002091300130E02D5F3F4F9091B6
:1006C0003101892F90E00197880F991F880F991F9A
:1006D000820F931F0E9470020E94AE008AE00E9467
:1006E000AE00109244011092380190913701809130
:1006F00036019813AFC080914501833009F0AAC03C
:100700004F99A6C0EAE7F0E080818F7780838091DF
:100710003101823079F118F4813041F099C0833091
:1007200009F44DC0843009F46FC092C0809130014B
:1007300090E00E94700290E00E94EB0180913001F5
:1007400090E001960E94700290E00E945F0280910A
:10075000300190E002960E94700290E00E945801E1
:100760008091300190E003960E94700290E00E9418
:1007700098016EC08091300190E004960E94700252
:1007800090E00E94EB018091300190E005960E947C
:10079000700290E00E945F028091300190E0069626
:1007A0000E94700290E00E9458018091300190E018
:1007B00007960E94700290E00E94980149C08091C3
:1007C000300190E008960E94700290E00E94EB01D8
:1007D0008091300190E009960E94700290E00E94A2
:1007E0005F028091300190E00A960E94700290E0D2
:1007F0000E9458018091300190E00B960E94700297
:1008000090E00E94980124C08091300190E00C9605
:100810000E94700290E00E94EB018091300190E014
:100820000D960E94700290E00E945F02809130015C
:1008300090E00E960E94700290E00E945801809114
:10084000300190E00F960E94700290E00E949801A3
:1008500010923601809145018230C1F0833049F118
:10086000813009F063C08BB184608BB985B18F7E14
:1008700085B98BB18F7E8BB985B18F7D85B988B1F4
:100880008F7E88B988B18F7D88B908958BB18061DA
:100890008BB985B18F7E85B98BB18B7F8BB985B1D3
:1008A0008F7D85B988B18F7E88B988B18F7D88B9F1
:1008B000089585B1806185B98BB18B7F8BB98BB180
:1008C0008F7E8BB980913101823099F018F481309C
:1008D00031F008958330B9F08430F9F0089585B18E
:1008E000806285B988B18F7E88B988B18F7D88B9DB
:1008F000089585B18F7D85B988B1806188B988B147
:100900008F7D88B9089585B1806285B988B180618D
:1009100088B988B18F7D88B9089585B18F7D85B9F3
:1009200088B18F7E88B988B1806288B908950E94A5
:100930003F020E947902FDCF1F920F920FB60F92D5
:100940001124CF92DF92EF92FF922F933F934F9318
:100950005F936F937F938F939F93AF93BF93EF9327
:10096000FF938091420181112FC0609178007091B6
:10097000790070934101609340018091450181307D
:1009800011F08330E9F480E090E00E9463062FE8E4
:1009900032EC45EF5CE30E94F10620E030E040E0FD
:1009A00051E40E94C8056B017C010E9434066093EB
:1009B0003501C701B6010E943406CB010E94EB014C
:1009C00081E08093420191C0813079F56091780097
:1009D0007091790070933F0160933E0180914501D1
:1009E000813011F08330E9F480E090E00E946306EA
:1009F0002FE832EC45EF5CE30E94F10620E030E0A6
:100A000040E051E40E94C8056B017C010E9434065D
:100A100060933401C701B6010E943406CB010E94E5
:100A20005F0282E08093420160C0823079F560917C
:100A300078007091790070933D0160933C01809142
:100A40004501813011F08330E9F480E090E00E94AC
:100A500063062FE832EC45EF5CE30E94F10620E0EC
:100A600030E040E051E40E94C8056B017C010E9427
:100A7000340660933301C701B6010E943406CB01EE
:100A80000E94580183E0809342012FC0833069F5B2
:100A9000609178007091790070933B0160933A0106
:100AA00080914501813011F08330E9F480E090E0DD
:100AB0000E9463062FE832EC45EF5CE30E94F106EA
:100AC00020E030E040E051E40E94C8056B017C0169
:100AD0000E94340660933201C701B6010E943406B9
:100AE000CB010E94980110924201809142010E9424
:100AF000CB00EAE7F0E0808180648083FF91EF9192
:100B0000BF91AF919F918F917F916F915F914F9125
:100B10003F912F91FF90EF90DF90CF900F900FBEFD
:100B20000F901F9018951F920F920FB60F921124DD
:100B30008F9381E0809343018091C60080934601AA
:100B40008F910F900FBE0F901F9018951F920F92CC
:100B50000FB60F9211248F9381E08093440183B1EB
:100B6000809339018F910F900FBE0F901F901895B1
:100B70001F920F920FB60F9211248F9389B1809319
:100B800037018F910F900FBE0F901F9018955058FE
:100B9000BB27AA270E94DF050C94B7060E94A9066E
:100BA00038F00E94B00620F039F49F3F19F426F483
:100BB0000C94A6060EF4E095E7FB0C94A006E92F32
:100BC0000E94C80658F3BA1762077307840795078F
:100BD00020F079F4A6F50C94EA060EF4E0950B2EBD
:100BE000BA2FA02D0B01B90190010C01CA01A0017F
:100BF0001124FF27591B99F0593F50F4503E68F1DA
:100C00001A16F040A22F232F342F4427585FF3CF1A
:100C1000469537952795A795F0405395C9F77EF4EB
:100C20001F16BA0B620B730B840BBAF09150A1F034
:100C3000FF0FBB1F661F771F881FC2F70EC0BA0FBA
:100C4000621F731F841F48F4879577956795B79542
:100C5000F7959E3F08F0B0CF9395880F08F099273D
:100C6000EE0F9795879508950E94D00688F09F57BC
:100C700098F0B92F9927B751B0F0E1F0660F771FC0
:100C8000881F991F1AF0BA95C9F714C0B13091F0B6
:100C90000E94EA06B1E008950C94EA06672F782FC7
:100CA0008827B85F39F0B93FCCF38695779567957B
:100CB000B395D9F73EF490958095709561957F4FE7
:100CC0008F4F9F4F0895E89409C097FB3EF490958D
:100CD0008095709561957F4F8F4F9F4F9923A9F015
:100CE000F92F96E9BB279395F695879577956795A4
:100CF000B795F111F8CFFAF4BB0F11F460FF1BC0E8
:100D00006F5F7F4F8F4F9F4F16C0882311F096E97A
:100D100011C0772321F09EE8872F762F05C0662328
:100D200071F096E8862F70E060E02AF09A95660FE1
:100D3000771F881FDAF7880F9695879597F908959A
:100D400097F99F6780E870E060E008959FEF80EC7E
:100D5000089500240A941616170618060906089521
:100D600000240A9412161306140605060895092E87
:100D70000394000C11F4882352F0BB0F40F4BF2BF6
:100D800011F460FF04C06F5F7F4F8F4F9F4F089536
:100D900057FD9058440F551F59F05F3F71F047952C
:100DA000880F97FB991F61F09F3F79F08795089511
:100DB000121613061406551FF2CF4695F1DF08C030
:100DC000161617061806991FF1CF8695710561054D
:100DD00008940895E894BB2766277727CB0197F9F5
:100DE00008950E9404070C94B7060E94A90638F0E3
:100DF0000E94B00620F0952311F00C94A0060C94EC
:100E0000A60611240C94EB060E94C80670F3959F69
:100E1000C1F3950F50E0551F629FF001729FBB27F1
:100E2000F00DB11D639FAA27F00DB11DAA1F649F8D
:100E30006627B00DA11D661F829F2227B00DA11D40
:100E4000621F739FB00DA11D621F839FA00D611DC6
:100E5000221F749F3327A00D611D231F849F600DE7
:100E6000211D822F762F6A2F11249F5750409AF010
:100E7000F1F088234AF0EE0FFF1FBB1F661F771F9C
:100E8000881F91505040A9F79E3F510580F00C9467
:100E9000A0060C94EB065F3FE4F3983ED4F38695EE
:100EA00077956795B795F795E7959F5FC1F7FE2B07
:100EB000880F911D9695879597F90895F894FFCF1F
:100EC000312E2053746F7265643A2000322E205305
:100ED000746F7265643A2000332E2053746F72650C
:100EE000643A2000342E2053746F7265643A2000F7
:00000001FF
